S01A000053706569636865726B6C617373656E5F30312E7372656326
S11300000C942A000C943C000C943C000C943C008E
S11300100C943C000C943C000C943C000C943C006C
S11300200C943C000C943C000C943C000C943C005C
S11300300C943C000C943C000C943C000C943C004C
S11300400C943C000C943C000C943C000C943C003C
S11300500C943C0011241FBECFE5D4E0DEBFCDBF1D
S113006020E0A0E6B0E001C01D92A336B207E1F79C
S11300700E9448000C945B000C9400008EEE809368
S11300806200809160008F5F8093600088BB089558
S113009081E0809362000E943E0080916200809320
S11300A06100809161008E3E19F481E182BBF0CF42
S10D00B08FEF82BBEDCFF894FFCF71
S9030000FC
