S00E00004C45445F30322E7372656380
S11300000C942A000C9434000C9434000C943400A6
S11300100C9434000C9434000C9434000C9434008C
S11300200C9434000C9434000C9434000C9434007C
S11300300C9434000C9434000C9434000C9434006C
S11300400C9434000C9434000C9434000C9434005C
S11300500C94340011241FBECFE5D4E0DEBFCDBF25
S11300600E9436000C9446000C9400008FEF84BB71
S113007015BA85B38F5F85BB2FE78FE492E12150DA
S113008080409040E1F700C00000F3CFF894FFCF28
S9030000FC
