S011000054494D4552305F30312E73726563A2
S11300000C942A000C943C000C943C000C943C008E
S11300100C943C000C943C000C943C000C943C006C
S11300200C943C000C9449000C943C000C943C004F
S11300300C943C000C943C000C943C000C943C004C
S11300400C943C000C943C000C943C000C943C003C
S11300500C943C0011241FBECFE5D4E0DEBFCDBF1D
S113006020E0A0E6B0E001C01D92A236B207E1F79D
S11300700E943E000C946C000C9400008FEF84BB33
S113008015BA83B7816083BF89B7816089BF7894CB
S1130090FFCF1F920F920FB60F9211242F938F93BD
S11300A09F9380916000909161000196909361000C
S11300B0809360008D389B4538F010926100109257
S11300C0600085B3809585BB9F918F912F910F9090
S10F00D00FBE0F901F901895F894FFCFFE
S9030000FC
