S01100005461737465725F30312E73726563E0
S11300000C942A000C9434000C9434000C943400A6
S11300100C9434000C9434000C9434000C9434008C
S11300200C9434000C9434000C9434000C9434007C
S11300300C9434000C9434000C9434000C9434006C
S11300400C9434000C9434000C9434000C9434005C
S11300500C94340011241FBECFE5D4E0DEBFCDBF25
S11300600E9436000C9444000C9400001ABA83E0F9
S11300708BBB81E084BB15BAC89902C081E085BB03
S10F0080C999FACF15BAF8CFF894FFCF55
S9030000FC
