:100000000C942A000C9434000C9434000C943400AA
:100010000C9434000C9434000C9434000C94340090
:100020000C9434000C9434000C9434000C94340080
:100030000C9434000C9434000C9434000C94340070
:100040000C9434000C9434000C9434000C94340060
:100050000C94340011241FBECFE5D4E0DEBFCDBF29
:100060000E9436000C9469000C940000CF93DF933B
:1000700000D000D0CDB7DEB780EF90EF9A838983B0
:1000800088E08B8387E08C838B81282F30E081E0B0
:1000900090E002C0880F991F2A95E2F79C018981A0
:1000A0009A81822B932B9A8389838C81282F30E02D
:1000B00081E090E002C0880F991F2A95E2F78095B1
:1000C00090959C0189819A81822393239A838983C5
:0600D000DBCFF894FFCF26
:00000001FF
