:100000000C942A000C9434000C9434000C943400AA
:100010000C9434000C9434000C9434000C94340090
:100020000C9434000C9434000C9434000C94340080
:100030000C9434000C9434000C9434000C94340070
:100040000C9434000C9434000C9434000C94340060
:100050000C94340011241FBECFE5D4E0DEBFCDBF29
:100060000E9436000C9444000C9400008FEF84BB77
:1000700085E585BB85B3809585BB8FE493EC0197BF
:0C008000F1F700C00000F6CFF894FFCFAD
:00000001FF
