S00F0000494E54315F30322E7372656338
S11300000C942A000C9434000C9434000C943400A6
S11300100C9434000C9434000C9434000C9434008C
S11300200C9434000C9434000C9434000C9434007C
S11300300C9434000C9434000C9434000C9434006C
S11300400C9434000C9434000C9434000C9434005C
S11300500C94340011241FBECFE5D4E0DEBFCDBF25
S11300600E9436000C944C000C9400008FEF84BB6B
S113007015BA81B3877F81BB82B3886082BB85B7A1
S1130080886085BF0AB607FEFDCF8AB780688ABF3D
S10F009085B38F5F85BBF6CFF894FFCFDB
S9030000FC
