S010000054696D65725F30322E7372656352
S11300000C942A000C943C000C943C000C943C008E
S11300100C943C000C943C000C943C000C943C006C
S11300200C943C000C943C000C943C000C943C005C
S11300300C943C000C943C000C943C000C943C004C
S11300400C943C000C943C000C943C000C943C003C
S11300500C943C0011241FBECFE5D4E0DEBFCDBF1D
S113006020E0A0E6B0E001C01D92A236B207E1F79D
S11300700E9460000C9467000C9400008FEF84BB16
S113008015BA089508B600FEFDCF88B7816088BF11
S1130090809160009091610001969093610080933B
S11300A060008D389B453CF085B3809585BB1092EC
S11300B0610010926000089583B7816083BF089542
S11300C00E943E000E945C000E944200FDCFF89412
S10500D0FFCF5C
S9030000FC
