:100000000C942A000C943C000C943C000C943C0092
:100010000C943C000C943C000C943C000C943C0070
:100020000C943C000C943C000C943C000C943C0060
:100030000C943C000C943C000C943C000C943C0050
:100040000C943C000C943C000C943C000C943C0040
:100050000C943C0011241FBECFE5D4E0DEBFCDBF21
:1000600020E0A0E6B0E001C01D92A236B207E1F7A1
:100070000E943E000C945E000C9400008FEF84BB45
:1000800015BA83B7816083BF08B600FEFDCF88B77D
:10009000816088BF8091600090916100019690938B
:1000A0006100809360008D389B4570F31092610071
:1000B0001092600085B3809585BBE6CFF894FFCFA2
:00000001FF
