S01800005363686C656966656E746573745F30312E73726563FB
S11300000C942A000C9434000C9434000C943400A6
S11300100C9434000C9434000C9434000C9434008C
S11300200C9434000C9434000C9434000C9434007C
S11300300C9434000C9434000C9434000C9434006C
S11300400C9434000C9434000C9434000C9434005C
S11300500C94340011241FBECFE5D4E0DEBFCDBF25
S11300600E9436000C9449000C9400008FEF84BB6E
S113007015BA80E00BC085BB2FE73FE492E1215025
S113008030409040E1F700C000008F5F893098F362
S1090090F0CFF894FFCF4D
S9030000FC
