:100000000C942A000C9434000C9436000C943400A8
:100010000C9434000C9434000C9434000C94340090
:100020000C9434000C9434000C9434000C94340080
:100030000C9434000C9434000C9434000C94340070
:100040000C9434000C9434000C9434000C94340060
:100050000C94340011241FBECFE5D4E0DEBFCDBF29
:100060000E9445000C9456000C9400001F920F92C1
:100070000FB60F9211248F9385B38F5F85BB8F913D
:100080000F900FBE0F901F9018958FEF84BB15BA7D
:1000900081B3877F81BB82B3886082BB85B788606C
:1000A00085BF8BB780688BBF7894FFCFF894FFCF64
:00000001FF
