S011000046656C6465725F30312E7372656301
S11300000C942A000C9447000C9447000C9447006D
S11300100C9447000C9447000C9447000C94470040
S11300200C9447000C9447000C9447000C94470030
S11300300C9447000C9447000C9447000C94470020
S11300400C9447000C9447000C9447000C94470010
S11300500C94470011241FBECFE5D4E0DEBFCDBF12
S113006010E0A0E6B0E0E6E6F1E002C005900D92F3
S1130070A637B107D9F720E0A6E7B0E001C01D928A
S1130080AE37B207E1F70E9449000C94B1000C941A
S11300900000CF93DF9300D01F92CDB7DEB7198253
S11300A012C08981882F90E02981222F30E0209589
S11300B03095880F991F8A589F4FFC013183208304
S11300C089818F5F89838981843058F38BE390E041
S11300D028E0FC01208388E390E0209178003091AF
S11300E07900FC01208385E390E020917800309131
S11300F07900232F3327FC01208388E48093600058
S11301008AE7809365008AE08093640082E390E04C
S113011026E0FC0120831A8220C01B8218C08A8139
S1130120282F30E08B81482F50E09A818B81692FF2
S1130130680FC901880F991F820F931F840F951FA1
S113014081599F4FFC0160838B818F5F8B838B81EF
S1130150833028F38A818F5F8A838A818230E8F230
S1090160FFCFF894FFCF6D
S11301660102030405312C322C332C342C350011B6
S10901762233445566002B
S9030000FC
